:020000000328D3
:100006008316031386018801831286018801013055
:100016008600043088001A30FB005E30FC006E302B
:10002600FD00FD0B1428FC0B1428FB0B1428000004
:1000360002308600043088000B30FB002630FC00BE
:100046005D30FD00FD0B2528FC0B2528FB0B252824
:100056000000000004308600013088001A30FB00E2
:100066005E30FC006E30FD00FD0B3728FC0B372898
:10007600FB0B3728000004308600023088000B3066
:10008600FB002630FC005D30FD00FD0B4828FC0B14
:0E0096004828FB0B4828000000000A285128CB
:02400E004A2F37
:00000001FF
