:020000000328D3
:100006008316031386018801013087008312860157
:100016008801071C312806308600063088000B3020
:10002600FB002630FC005D30FD00FD0B1828FC0BA4
:100036001828FB0B182800000000860188010B30E9
:10004600FB002630FC005D30FD00FD0B2828FC0B74
:100056002828FB0B282800000000712801308600A4
:10006600043088006630FB007630FC00C130FD00AD
:10007600FD0B3B28FC0B3B28FB0B3B280230860084
:10008600043088002930FB009630FC007F30FD00EC
:10009600FD0B4B28FC0B4B28FB0B4B280430860032
:1000A600013088006630FB007630FC00C130FD0070
:1000B600FD0B5B28FC0B5B28FB0B5B2804308600E2
:1000C600023088002930FB009630FC007F30FD00AE
:1000D600FD0B6B28FC0B6B28FB0B6B280C2872287E
:02400E004A2F37
:00000001FF
