:020000000328D3
:100006008316031386010130880083128601831646
:1000160007108312071008183D2801308600663045
:10002600FB007630FC00C130FD00FD0B1828FC0BF0
:100036001828FB0B1828023086002930FB00963062
:10004600FC007F30FD00FD0B2628FC0B2628FB0B51
:100056002628043086008F30FB000C30FC0041302F
:10006600FD00FD0B3428FC0B3428FB0B3428000064
:1000760000006C28023086000B30FB002630FC00A6
:100086005D30FD00FD0B4528FC0B4528FB0B452884
:100096000000000086010B30FB002630FC005D30BE
:1000A600FD00FD0B5428FC0B5428FB0B54280000C4
:1000B6000000043086000B30FB002630FC005D306B
:1000C600FD00FD0B6428FC0B6428FB0B6428000074
:0600D60000000E286D2859
:02400E004A2F37
:00000001FF
